:100000000C945D000C9485000C9485000C94850084
:100010000C9485000C9485000C9485000C9485004C
:100020000C9485000C9485000C9485000C9485003C
:100030000C9485000C9485000C9485000C9485002C
:100040000C9445040C9485000C94CF010C9412027E
:100050000C9485000C9485000C9485000C9485000C
:100060000C9485000C94850000000007000201003C
:100070000003040600000000000000000102040864
:100080001020408001020408102001020408102002
:10009000040404040404040402020202020203032E
:1000A0000303030300000000250028002B000000CC
:1000B0000000240027002A00CE0211241FBECFEF2B
:1000C000D8E0DEBFCDBF11E0A0E0B1E0E8EEF9E09E
:1000D00002C005900D92A031B107D9F711E0A0E15F
:1000E000B1E001C01D92A33CB107E1F710E0CAEBFB
:1000F000D0E004C02297FE010E94EE04C83BD10765
:10010000C9F70E9438040C94F2040C94000061E0DA
:1001100081E00E94C80040E855E260E070E080E1C4
:1001200091E00C944D0261E081E00E94010140E108
:1001300050E060E070E080E191E00C9420048330B6
:1001400081F028F4813099F08230A1F00895863052
:10015000A9F08730B9F08430D1F4809180008F7D90
:1001600003C0809180008F7780938000089584B5CC
:100170008F7702C084B58F7D84BD08958091B000D3
:100180008F7703C08091B0008F7D8093B000089579
:10019000CF93DF9390E0FC01E458FF4F2491FC01E2
:1001A000E057FF4F8491882349F190E0880F991F11
:1001B000FC01E255FF4FA591B4918C559F4FFC0176
:1001C000C591D4919FB7611108C0F8948C91209586
:1001D00082238C93888182230AC0623051F4F89480
:1001E0008C91322F309583238C938881822B888346
:1001F00004C0F8948C91822B8C939FBFDF91CF9198
:1002000008950F931F93CF93DF931F92CDB7DEB75F
:10021000282F30E0F901E859FF4F8491F901E458A3
:10022000FF4F1491F901E057FF4F04910023C9F0EB
:10023000882321F069830E949F006981E02FF0E00C
:10024000EE0FFF1FEC55FF4FA591B4919FB7F894A7
:100250008C91611103C01095812301C0812B8C9377
:100260009FBF0F90DF91CF911F910F910895FC01D7
:1002700024853585F901E05CFF4F80819181F9018A
:10028000EE5BFF4F20813181821B930B8F73992787
:100290000895FC0184859585FC01E05CFF4F408159
:1002A0005181FC01EE5BFF4F2081318142175307E2
:1002B00041F00190F081E02DE80FF91F808190E07E
:1002C00008958FEF9FEF0895FC0184859585FC01CB
:1002D000E05CFF4F40815181FC01EE5BFF4F2081CC
:1002E00031814217530779F0A081B181A80FB91F5E
:1002F0008C91208131812F5F3F4F2F7333273183C2
:10030000208390E008958FEF9FEF0895FC0181A175
:10031000882329F0A489B5898C9186FFFBCF11A28F
:100320000895CF93DF93FC0126853785D901A05C22
:10033000BF4F8D919C91119701968F739927E90179
:10034000CE5BDF4F4881598184179507D9F30D9013
:10035000BC91A02DA20FB31F6C93A685B785A05C9E
:10036000BF4F11969C938E93A689B7892C9181E0FB
:1003700090E0078C02C0880F991F0A94E2F7282B9F
:100380002C9381E081A30488F589E02D808180642D
:10039000808381E090E0DF91CF91089508951F92CE
:1003A0000F920FB60F9211242F933F934F938F9379
:1003B0009F93EF93FF938091C00082FD1CC04091FA
:1003C000C6008091B6019091B70101968F7399276D
:1003D0002091B8013091B9018217930771F0E09133
:1003E000B601F091B701EA58FE4F40839093B701F0
:1003F0008093B60102C08091C600FF91EF919F915A
:100400008F914F913F912F910F900FBE0F901F90A2
:10041000189580E191E00E943701892B11F00C942E
:10042000CE0108951F920F920FB60F9211242F93B1
:100430003F938F939F93EF93FF932091720130919D
:10044000730180917401909175012817390731F477
:100450008091C1008F7D8093C10014C0E091740130
:10046000F0917501EE5CFE4F2081809174019091B6
:10047000750101968F73992790937501809374018C
:100480002093C600FF91EF919F918F913F912F9103
:100490000F900FBE0F901F901895CF92DF92EF92A2
:1004A000FF92CF93DF93EC016A017B01411581EE4E
:1004B000580761057105F9F0EC89FD8981E090E04C
:1004C00008A002C0880F991F0A94E2F7808360E0B9
:1004D00079E08DE390E0A70196010E94CA042150C3
:1004E00031094109510956954795379527952115A9
:1004F00080E1380798F0EC89FD89108260E874E8A3
:100500008EE190E0A70196010E94CA0421503109B2
:10051000410951095695479537952795E889F989F5
:100520003083EA89FB89208319A2EE89FF89408103
:1005300081E090E09C010C8C02C0220F331F0A94D2
:10054000E2F7422B4083EE89FF8940819C010D8CAC
:1005500002C0220F331F0A94E2F7422B4083EE8938
:10056000FF8940819C010E8C02C0220F331F0A9428
:10057000E2F7422B4083EE89FF8920810F8C02C075
:10058000880F991F0A94E2F7809582238083DF9178
:10059000CF91FF90EF90DF90CF90089510921301CC
:1005A0001092120188EE93E0A0E0B0E08093140175
:1005B00090931501A0931601B093170184E091E088
:1005C000909311018093100186E791E090931D01B3
:1005D00080931C0182E391E090931F0180931E01A0
:1005E00085EC90E0909321018093200184EC90E0D1
:1005F000909323018093220180EC90E09093250159
:100600008093240181EC90E0909327018093260150
:1006100082EC90E0909329018093280186EC90E091
:1006200090932B0180932A0184E080932C0183E036
:1006300080932D0187E080932E0185E080932F0128
:1006400081E0809330010895CF92DF92EF92FF9284
:100650000F931F93CF93DF936C017A01EB01E60EAA
:10066000F71E00E010E0CE15DF0561F06991D601BC
:10067000ED91FC910190F081E02DC6010995080FE4
:10068000191FF1CFC801DF91CF911F910F91FF90FA
:10069000EF90DF90CF9008956115710581F0DB0137
:1006A0000D900020E9F7AD0141505109461B570B51
:1006B000DC01ED91FC910280F381E02D099480E052
:1006C00090E00895DC01ED91FC910190F081E02D26
:1006D00009940F931F93CF93DF93EC016DE00E9479
:1006E00062038C016AE0CE010E946203800F911FB9
:1006F000DF91CF911F910F9108958F929F92AF92AA
:10070000BF92CF92DF92EF92FF920F931F93CF93FE
:10071000DF93CDB7DEB7A1970FB6F894DEBF0FBE5B
:10072000CDBF7C01C42EE52FCB01D22E19A221E032
:100730002D1510F02AE0D22E8E010F5D1F4F8D2C4B
:10074000912CA12CB12C6C2D7E2FA50194010E941F
:10075000CA048C2DD29E80191124015011098A30AF
:1007600014F4805D01C0895CF80180832115310596
:100770004105510521F0C22EE32FCA01E4CFB80193
:10078000C7010E944C03A1960FB6F894DEBF0FBEBE
:10079000CDBFDF91CF911F910F91FF90EF90DF9030
:1007A000CF90BF90AF909F908F900895CF92DF929F
:1007B000EF92FF920F931F93CF93DF93EC016A01A7
:1007C0007B012115310579F4E881F9810190F081EF
:1007D000E02D642FDF91CF911F910F91FF90EF904B
:1007E000DF90CF9009942A303105E9F477FF1AC0E1
:1007F0006DE20E9462038C0144275527BA014C190F
:100800005D096E097F092AE0CE010E947D03800FF9
:10081000911FDF91CF911F910F91FF90EF90DF908B
:10082000CF9008952AE0B701A601CE01DF91CF91C4
:100830001F910F91FF90EF90DF90CF900C947D036C
:100840000F931F93CF93DF93EC019A01AB016627BF
:1008500057FD6095762F0E94D6038C01CE010E9431
:100860006903800F911FDF91CF911F910F91089520
:100870000E948F040E948700C9E0D2E00E9493008A
:100880002097E1F30E940902F9CF1F920F920FB651
:100890000F9211242F933F938F939F93AF93BF9306
:1008A0008091BB019091BC01A091BD01B091BE01AE
:1008B0003091BA0123E0230F2D3720F40196A11DBA
:1008C000B11D05C026E8230F0296A11DB11D20937E
:1008D000BA018093BB019093BC01A093BD01B0937A
:1008E000BE018091BF019091C001A091C101B09162
:1008F000C2010196A11DB11D8093BF019093C0015B
:10090000A093C101B093C201BF91AF919F918F910C
:100910003F912F910F900FBE0F901F9018957894D4
:1009200084B5826084BD84B5816084BD85B58260F4
:1009300085BD85B5816085BDEEE6F0E08081816092
:100940008083E1E8F0E01082808182608083808192
:1009500081608083E0E8F0E0808181608083E1EB6A
:10096000F0E0808184608083E0EBF0E08081816052
:100970008083EAE7F0E08081846080838081826008
:1009800080838081816080838081806880831092F1
:10099000C1000895A1E21A2EAA1BBB1BFD010DC0C8
:1009A000AA1FBB1FEE1FFF1FA217B307E407F5071F
:1009B00020F0A21BB30BE40BF50B661F771F881FFB
:1009C000991F1A9469F760957095809590959B0191
:1009D000AC01BD01CF010895EE0FFF1F0590F4910A
:0809E000E02D0994F894FFCF0B
:1009E80000000000910124033701640149018601D8
:00000001FF
